{
  "contractName": "DAO",
  "abi": [
    {
      "inputs": [
        {
          "internalType": "uint256",
          "name": "_contributionTimeEnd",
          "type": "uint256"
        },
        {
          "internalType": "uint256",
          "name": "_voteTime",
          "type": "uint256"
        },
        {
          "internalType": "uint256",
          "name": "_quorum",
          "type": "uint256"
        }
      ],
      "stateMutability": "nonpayable",
      "type": "constructor"
    },
    {
      "inputs": [],
      "name": "availableFunds",
      "outputs": [
        {
          "internalType": "uint256",
          "name": "",
          "type": "uint256"
        }
      ],
      "stateMutability": "view",
      "type": "function",
      "constant": true
    },
    {
      "inputs": [],
      "name": "contributionTimeEnd",
      "outputs": [
        {
          "internalType": "uint256",
          "name": "",
          "type": "uint256"
        }
      ],
      "stateMutability": "view",
      "type": "function",
      "constant": true
    },
    {
      "inputs": [
        {
          "internalType": "uint256",
          "name": "",
          "type": "uint256"
        }
      ],
      "name": "investorsList",
      "outputs": [
        {
          "internalType": "address",
          "name": "",
          "type": "address"
        }
      ],
      "stateMutability": "view",
      "type": "function",
      "constant": true
    },
    {
      "inputs": [
        {
          "internalType": "address",
          "name": "",
          "type": "address"
        },
        {
          "internalType": "uint256",
          "name": "",
          "type": "uint256"
        }
      ],
      "name": "isVoted",
      "outputs": [
        {
          "internalType": "bool",
          "name": "",
          "type": "bool"
        }
      ],
      "stateMutability": "view",
      "type": "function",
      "constant": true
    },
    {
      "inputs": [],
      "name": "manager",
      "outputs": [
        {
          "internalType": "address",
          "name": "",
          "type": "address"
        }
      ],
      "stateMutability": "view",
      "type": "function",
      "constant": true
    },
    {
      "inputs": [],
      "name": "nextProposalId",
      "outputs": [
        {
          "internalType": "uint256",
          "name": "",
          "type": "uint256"
        }
      ],
      "stateMutability": "view",
      "type": "function",
      "constant": true
    },
    {
      "inputs": [
        {
          "internalType": "address",
          "name": "",
          "type": "address"
        }
      ],
      "name": "numOfshares",
      "outputs": [
        {
          "internalType": "uint256",
          "name": "",
          "type": "uint256"
        }
      ],
      "stateMutability": "view",
      "type": "function",
      "constant": true
    },
    {
      "inputs": [
        {
          "internalType": "uint256",
          "name": "",
          "type": "uint256"
        }
      ],
      "name": "proposals",
      "outputs": [
        {
          "internalType": "uint256",
          "name": "id",
          "type": "uint256"
        },
        {
          "internalType": "string",
          "name": "description",
          "type": "string"
        },
        {
          "internalType": "uint256",
          "name": "amount",
          "type": "uint256"
        },
        {
          "internalType": "address payable",
          "name": "receipient",
          "type": "address"
        },
        {
          "internalType": "uint256",
          "name": "votes",
          "type": "uint256"
        },
        {
          "internalType": "uint256",
          "name": "end",
          "type": "uint256"
        },
        {
          "internalType": "bool",
          "name": "isExecuted",
          "type": "bool"
        }
      ],
      "stateMutability": "view",
      "type": "function",
      "constant": true
    },
    {
      "inputs": [],
      "name": "quorum",
      "outputs": [
        {
          "internalType": "uint256",
          "name": "",
          "type": "uint256"
        }
      ],
      "stateMutability": "view",
      "type": "function",
      "constant": true
    },
    {
      "inputs": [],
      "name": "totalShares",
      "outputs": [
        {
          "internalType": "uint256",
          "name": "",
          "type": "uint256"
        }
      ],
      "stateMutability": "view",
      "type": "function",
      "constant": true
    },
    {
      "inputs": [],
      "name": "voteTime",
      "outputs": [
        {
          "internalType": "uint256",
          "name": "",
          "type": "uint256"
        }
      ],
      "stateMutability": "view",
      "type": "function",
      "constant": true
    },
    {
      "inputs": [],
      "name": "contribution",
      "outputs": [],
      "stateMutability": "payable",
      "type": "function",
      "payable": true
    },
    {
      "inputs": [
        {
          "internalType": "uint256",
          "name": "amount",
          "type": "uint256"
        }
      ],
      "name": "reedemShare",
      "outputs": [],
      "stateMutability": "nonpayable",
      "type": "function"
    },
    {
      "inputs": [
        {
          "internalType": "uint256",
          "name": "amount",
          "type": "uint256"
        },
        {
          "internalType": "address",
          "name": "to",
          "type": "address"
        }
      ],
      "name": "transferShare",
      "outputs": [],
      "stateMutability": "nonpayable",
      "type": "function"
    },
    {
      "inputs": [
        {
          "internalType": "string",
          "name": "description",
          "type": "string"
        },
        {
          "internalType": "uint256",
          "name": "amount",
          "type": "uint256"
        },
        {
          "internalType": "address payable",
          "name": "receipient",
          "type": "address"
        }
      ],
      "name": "createProposal",
      "outputs": [],
      "stateMutability": "nonpayable",
      "type": "function"
    },
    {
      "inputs": [
        {
          "internalType": "uint256",
          "name": "proposalId",
          "type": "uint256"
        }
      ],
      "name": "voteProposal",
      "outputs": [],
      "stateMutability": "nonpayable",
      "type": "function"
    },
    {
      "inputs": [
        {
          "internalType": "uint256",
          "name": "proposalId",
          "type": "uint256"
        }
      ],
      "name": "executeProposal",
      "outputs": [],
      "stateMutability": "nonpayable",
      "type": "function"
    },
    {
      "inputs": [],
      "name": "ProposalList",
      "outputs": [
        {
          "components": [
            {
              "internalType": "uint256",
              "name": "id",
              "type": "uint256"
            },
            {
              "internalType": "string",
              "name": "description",
              "type": "string"
            },
            {
              "internalType": "uint256",
              "name": "amount",
              "type": "uint256"
            },
            {
              "internalType": "address payable",
              "name": "receipient",
              "type": "address"
            },
            {
              "internalType": "uint256",
              "name": "votes",
              "type": "uint256"
            },
            {
              "internalType": "uint256",
              "name": "end",
              "type": "uint256"
            },
            {
              "internalType": "bool",
              "name": "isExecuted",
              "type": "bool"
            }
          ],
          "internalType": "struct DAO.Proposal[]",
          "name": "",
          "type": "tuple[]"
        }
      ],
      "stateMutability": "view",
      "type": "function",
      "constant": true
    },
    {
      "inputs": [],
      "name": "InvestorList",
      "outputs": [
        {
          "internalType": "address[]",
          "name": "",
          "type": "address[]"
        }
      ],
      "stateMutability": "view",
      "type": "function",
      "constant": true
    }
  ],
  "bytecode": "0x60806040523480156200001157600080fd5b5060405162002abf38038062002abf833981810160405281019062000037919062000136565b600081118015620000485750606481105b6200008a576040517f08c379a00000000000000000000000000000000000000000000000000000000081526004016200008190620001f3565b60405180910390fd5b824262000098919062000244565b6007819055508160098190555080600a8190555033600b60006101000a81548173ffffffffffffffffffffffffffffffffffffffff021916908373ffffffffffffffffffffffffffffffffffffffff1602179055505050506200027f565b600080fd5b6000819050919050565b6200011081620000fb565b81146200011c57600080fd5b50565b600081519050620001308162000105565b92915050565b600080600060608486031215620001525762000151620000f6565b5b600062000162868287016200011f565b935050602062000175868287016200011f565b925050604062000188868287016200011f565b9150509250925092565b600082825260208201905092915050565b7f4e6f742076616c69642076616c75657300000000000000000000000000000000600082015250565b6000620001db60108362000192565b9150620001e882620001a3565b602082019050919050565b600060208201905081810360008301526200020e81620001cc565b9050919050565b7f4e487b7100000000000000000000000000000000000000000000000000000000600052601160045260246000fd5b60006200025182620000fb565b91506200025e83620000fb565b925082820190508082111562000279576200027862000215565b5b92915050565b612830806200028f6000396000f3fe6080604052600436106101145760003560e01c806350520b1f116100a0578063afc8275b11610064578063afc8275b14610386578063bcf93dd6146103b1578063c1188cff146103dc578063df18b7f414610405578063e65da4291461043057610114565b806350520b1f146102c25780636ac1e01f146102cc5780636dfc1099146102f5578063807896d5146103205780638ee36f051461034957610114565b80632ab09d14116100e75780632ab09d14146101d95780632ccc8727146102045780633a98ef391461024157806346fcff4c1461026c578063481c6a751461029757610114565b8063013cf08b14610119578063039383e61461015c5780630d61b519146101855780631703a018146101ae575b600080fd5b34801561012557600080fd5b50610140600480360381019061013b919061181a565b61046d565b6040516101539796959493929190611942565b60405180910390f35b34801561016857600080fd5b50610183600480360381019061017e91906119f6565b610564565b005b34801561019157600080fd5b506101ac60048036038101906101a7919061181a565b6108c6565b005b3480156101ba57600080fd5b506101c3610a3f565b6040516101d09190611a36565b60405180910390f35b3480156101e557600080fd5b506101ee610a45565b6040516101fb9190611a36565b60405180910390f35b34801561021057600080fd5b5061022b6004803603810190610226919061181a565b610a4b565b6040516102389190611a60565b60405180910390f35b34801561024d57600080fd5b50610256610a8a565b6040516102639190611a36565b60405180910390f35b34801561027857600080fd5b50610281610a90565b60405161028e9190611a36565b60405180910390f35b3480156102a357600080fd5b506102ac610a96565b6040516102b99190611a60565b60405180910390f35b6102ca610abc565b005b3480156102d857600080fd5b506102f360048036038101906102ee9190611b0c565b610cc0565b005b34801561030157600080fd5b5061030a610f10565b6040516103179190611d55565b60405180910390f35b34801561032c57600080fd5b506103476004803603810190610342919061181a565b6110f5565b005b34801561035557600080fd5b50610370600480360381019061036b9190611d77565b6113a8565b60405161037d9190611db7565b60405180910390f35b34801561039257600080fd5b5061039b6113d7565b6040516103a89190611a36565b60405180910390f35b3480156103bd57600080fd5b506103c66113dd565b6040516103d39190611a36565b60405180910390f35b3480156103e857600080fd5b5061040360048036038101906103fe919061181a565b6113e3565b005b34801561041157600080fd5b5061041a611694565b6040516104279190611e90565b60405180910390f35b34801561043c57600080fd5b5061045760048036038101906104529190611eb2565b611722565b6040516104649190611a36565b60405180910390f35b600460205280600052604060002060009150905080600001549080600101805461049690611f0e565b80601f01602080910402602001604051908101604052809291908181526020018280546104c290611f0e565b801561050f5780601f106104e45761010080835404028352916020019161050f565b820191906000526020600020905b8154815290600101906020018083116104f257829003601f168201915b5050505050908060020154908060030160009054906101000a900473ffffffffffffffffffffffffffffffffffffffff16908060040154908060050154908060060160009054906101000a900460ff16905087565b600115156000803373ffffffffffffffffffffffffffffffffffffffff1673ffffffffffffffffffffffffffffffffffffffff16815260200190815260200160002060009054906101000a900460ff161515146105f6576040517f08c379a00000000000000000000000000000000000000000000000000000000081526004016105ed90611f8b565b60405180910390fd5b81600654101561063b576040517f08c379a000000000000000000000000000000000000000000000000000000000815260040161063290611ff7565b60405180910390fd5b81600160003373ffffffffffffffffffffffffffffffffffffffff1673ffffffffffffffffffffffffffffffffffffffff1681526020019081526020016000205410156106bd576040517f08c379a00000000000000000000000000000000000000000000000000000000081526004016106b490612063565b60405180910390fd5b81600160003373ffffffffffffffffffffffffffffffffffffffff1673ffffffffffffffffffffffffffffffffffffffff168152602001908152602001600020600082825461070c91906120b2565b925050819055506000600160003373ffffffffffffffffffffffffffffffffffffffff1673ffffffffffffffffffffffffffffffffffffffff16815260200190815260200160002054036107b25760008060003373ffffffffffffffffffffffffffffffffffffffff1673ffffffffffffffffffffffffffffffffffffffff16815260200190815260200160002060006101000a81548160ff0219169083151502179055505b81600160008373ffffffffffffffffffffffffffffffffffffffff1673ffffffffffffffffffffffffffffffffffffffff168152602001908152602001600020600082825461080191906120e6565b9250508190555060016000808373ffffffffffffffffffffffffffffffffffffffff1673ffffffffffffffffffffffffffffffffffffffff16815260200190815260200160002060006101000a81548160ff0219169083151502179055506003819080600181540180825580915050600190039060005260206000200160009091909190916101000a81548173ffffffffffffffffffffffffffffffffffffffff021916908373ffffffffffffffffffffffffffffffffffffffff1602179055505050565b3373ffffffffffffffffffffffffffffffffffffffff16600b60009054906101000a900473ffffffffffffffffffffffffffffffffffffffff1673ffffffffffffffffffffffffffffffffffffffff1614610956576040517f08c379a000000000000000000000000000000000000000000000000000000000815260040161094d90612166565b60405180910390fd5b6000600460008381526020019081526020016000209050600a54600554606483600401546109849190612186565b61098e91906121f7565b10156109cf576040517f08c379a00000000000000000000000000000000000000000000000000000000081526004016109c690612274565b60405180910390fd5b60018160060160006101000a81548160ff021916908315150217905550806002015460066000828254610a0291906120b2565b92505081905550610a3b81600201548260030160009054906101000a900473ffffffffffffffffffffffffffffffffffffffff1661173a565b5050565b600a5481565b60085481565b60038181548110610a5b57600080fd5b906000526020600020016000915054906101000a900473ffffffffffffffffffffffffffffffffffffffff1681565b60055481565b60065481565b600b60009054906101000a900473ffffffffffffffffffffffffffffffffffffffff1681565b426007541015610b01576040517f08c379a0000000000000000000000000000000000000000000000000000000008152600401610af8906122e0565b60405180910390fd5b60003411610b44576040517f08c379a0000000000000000000000000000000000000000000000000000000008152600401610b3b9061234c565b60405180910390fd5b60016000803373ffffffffffffffffffffffffffffffffffffffff1673ffffffffffffffffffffffffffffffffffffffff16815260200190815260200160002060006101000a81548160ff02191690831515021790555034600160003373ffffffffffffffffffffffffffffffffffffffff1673ffffffffffffffffffffffffffffffffffffffff16815260200190815260200160002054610be691906120e6565b600160003373ffffffffffffffffffffffffffffffffffffffff1673ffffffffffffffffffffffffffffffffffffffff168152602001908152602001600020819055503460056000828254610c3b91906120e6565b925050819055503460066000828254610c5491906120e6565b925050819055506003339080600181540180825580915050600190039060005260206000200160009091909190916101000a81548173ffffffffffffffffffffffffffffffffffffffff021916908373ffffffffffffffffffffffffffffffffffffffff160217905550565b3373ffffffffffffffffffffffffffffffffffffffff16600b60009054906101000a900473ffffffffffffffffffffffffffffffffffffffff1673ffffffffffffffffffffffffffffffffffffffff1614610d50576040517f08c379a0000000000000000000000000000000000000000000000000000000008152600401610d4790612166565b60405180910390fd5b816006541015610d95576040517f08c379a0000000000000000000000000000000000000000000000000000000008152600401610d8c90611ff7565b60405180910390fd5b6040518060e00160405280600854815260200185858080601f016020809104026020016040519081016040528093929190818152602001838380828437600081840152601f19601f8201169050808301925050505050505081526020018381526020018273ffffffffffffffffffffffffffffffffffffffff1681526020016000815260200160095442610e2991906120e6565b815260200160001515815250600460006008548152602001908152602001600020600082015181600001556020820151816001019081610e699190612547565b506040820151816002015560608201518160030160006101000a81548173ffffffffffffffffffffffffffffffffffffffff021916908373ffffffffffffffffffffffffffffffffffffffff1602179055506080820151816004015560a0820151816005015560c08201518160060160006101000a81548160ff02191690831515021790555090505060086000815480929190610f0590612619565b919050555050505050565b6060600060085467ffffffffffffffff811115610f3057610f2f61236c565b5b604051908082528060200260200182016040528015610f6957816020015b610f56611785565b815260200190600190039081610f4e5790505b50905060005b6008548110156110ed57600460008281526020019081526020016000206040518060e001604052908160008201548152602001600182018054610fb190611f0e565b80601f0160208091040260200160405190810160405280929190818152602001828054610fdd90611f0e565b801561102a5780601f10610fff5761010080835404028352916020019161102a565b820191906000526020600020905b81548152906001019060200180831161100d57829003601f168201915b50505050508152602001600282015481526020016003820160009054906101000a900473ffffffffffffffffffffffffffffffffffffffff1673ffffffffffffffffffffffffffffffffffffffff1673ffffffffffffffffffffffffffffffffffffffff16815260200160048201548152602001600582015481526020016006820160009054906101000a900460ff1615151515815250508282815181106110d5576110d4612661565b5b60200260200101819052508080600101915050610f6f565b508091505090565b600115156000803373ffffffffffffffffffffffffffffffffffffffff1673ffffffffffffffffffffffffffffffffffffffff16815260200190815260200160002060009054906101000a900460ff16151514611187576040517f08c379a000000000000000000000000000000000000000000000000000000000815260040161117e90611f8b565b60405180910390fd5b600060046000838152602001908152602001600020905060001515600260003373ffffffffffffffffffffffffffffffffffffffff1673ffffffffffffffffffffffffffffffffffffffff168152602001908152602001600020600084815260200190815260200160002060009054906101000a900460ff16151514611242576040517f08c379a000000000000000000000000000000000000000000000000000000000815260040161123990612702565b60405180910390fd5b4281600501541015611289576040517f08c379a00000000000000000000000000000000000000000000000000000000081526004016112809061276e565b60405180910390fd5b600015158160060160009054906101000a900460ff161515146112e1576040517f08c379a00000000000000000000000000000000000000000000000000000000081526004016112d8906127da565b60405180910390fd5b6001600260003373ffffffffffffffffffffffffffffffffffffffff1673ffffffffffffffffffffffffffffffffffffffff168152602001908152602001600020600084815260200190815260200160002060006101000a81548160ff021916908315150217905550600160003373ffffffffffffffffffffffffffffffffffffffff1673ffffffffffffffffffffffffffffffffffffffff1681526020019081526020016000205481600401600082825461139d91906120e6565b925050819055505050565b60026020528160005260406000206020528060005260406000206000915091509054906101000a900460ff1681565b60075481565b60095481565b600115156000803373ffffffffffffffffffffffffffffffffffffffff1673ffffffffffffffffffffffffffffffffffffffff16815260200190815260200160002060009054906101000a900460ff16151514611475576040517f08c379a000000000000000000000000000000000000000000000000000000000815260040161146c90611f8b565b60405180910390fd5b80600160003373ffffffffffffffffffffffffffffffffffffffff1673ffffffffffffffffffffffffffffffffffffffff1681526020019081526020016000205410156114f7576040517f08c379a00000000000000000000000000000000000000000000000000000000081526004016114ee90612063565b60405180910390fd5b80600654101561153c576040517f08c379a000000000000000000000000000000000000000000000000000000000815260040161153390611ff7565b60405180910390fd5b80600160003373ffffffffffffffffffffffffffffffffffffffff1673ffffffffffffffffffffffffffffffffffffffff168152602001908152602001600020600082825461158b91906120b2565b925050819055506000600160003373ffffffffffffffffffffffffffffffffffffffff1673ffffffffffffffffffffffffffffffffffffffff16815260200190815260200160002054036116315760008060003373ffffffffffffffffffffffffffffffffffffffff1673ffffffffffffffffffffffffffffffffffffffff16815260200190815260200160002060006101000a81548160ff0219169083151502179055505b806006600082825461164391906120b2565b925050819055503373ffffffffffffffffffffffffffffffffffffffff166108fc829081150290604051600060405180830381858888f19350505050158015611690573d6000803e3d6000fd5b5050565b6060600380548060200260200160405190810160405280929190818152602001828054801561171857602002820191906000526020600020905b8160009054906101000a900473ffffffffffffffffffffffffffffffffffffffff1673ffffffffffffffffffffffffffffffffffffffff16815260200190600101908083116116ce575b5050505050905090565b60016020528060005260406000206000915090505481565b8073ffffffffffffffffffffffffffffffffffffffff166108fc839081150290604051600060405180830381858888f19350505050158015611780573d6000803e3d6000fd5b505050565b6040518060e00160405280600081526020016060815260200160008152602001600073ffffffffffffffffffffffffffffffffffffffff16815260200160008152602001600081526020016000151581525090565b600080fd5b600080fd5b6000819050919050565b6117f7816117e4565b811461180257600080fd5b50565b600081359050611814816117ee565b92915050565b6000602082840312156118305761182f6117da565b5b600061183e84828501611805565b91505092915050565b611850816117e4565b82525050565b600081519050919050565b600082825260208201905092915050565b60005b83811015611890578082015181840152602081019050611875565b60008484015250505050565b6000601f19601f8301169050919050565b60006118b882611856565b6118c28185611861565b93506118d2818560208601611872565b6118db8161189c565b840191505092915050565b600073ffffffffffffffffffffffffffffffffffffffff82169050919050565b6000611911826118e6565b9050919050565b61192181611906565b82525050565b60008115159050919050565b61193c81611927565b82525050565b600060e082019050611957600083018a611847565b818103602083015261196981896118ad565b90506119786040830188611847565b6119856060830187611918565b6119926080830186611847565b61199f60a0830185611847565b6119ac60c0830184611933565b98975050505050505050565b60006119c3826118e6565b9050919050565b6119d3816119b8565b81146119de57600080fd5b50565b6000813590506119f0816119ca565b92915050565b60008060408385031215611a0d57611a0c6117da565b5b6000611a1b85828601611805565b9250506020611a2c858286016119e1565b9150509250929050565b6000602082019050611a4b6000830184611847565b92915050565b611a5a816119b8565b82525050565b6000602082019050611a756000830184611a51565b92915050565b600080fd5b600080fd5b600080fd5b60008083601f840112611aa057611a9f611a7b565b5b8235905067ffffffffffffffff811115611abd57611abc611a80565b5b602083019150836001820283011115611ad957611ad8611a85565b5b9250929050565b611ae981611906565b8114611af457600080fd5b50565b600081359050611b0681611ae0565b92915050565b60008060008060608587031215611b2657611b256117da565b5b600085013567ffffffffffffffff811115611b4457611b436117df565b5b611b5087828801611a8a565b94509450506020611b6387828801611805565b9250506040611b7487828801611af7565b91505092959194509250565b600081519050919050565b600082825260208201905092915050565b6000819050602082019050919050565b611bb5816117e4565b82525050565b600082825260208201905092915050565b6000611bd782611856565b611be18185611bbb565b9350611bf1818560208601611872565b611bfa8161189c565b840191505092915050565b611c0e81611906565b82525050565b611c1d81611927565b82525050565b600060e083016000830151611c3b6000860182611bac565b5060208301518482036020860152611c538282611bcc565b9150506040830151611c686040860182611bac565b506060830151611c7b6060860182611c05565b506080830151611c8e6080860182611bac565b5060a0830151611ca160a0860182611bac565b5060c0830151611cb460c0860182611c14565b508091505092915050565b6000611ccb8383611c23565b905092915050565b6000602082019050919050565b6000611ceb82611b80565b611cf58185611b8b565b935083602082028501611d0785611b9c565b8060005b85811015611d435784840389528151611d248582611cbf565b9450611d2f83611cd3565b925060208a01995050600181019050611d0b565b50829750879550505050505092915050565b60006020820190508181036000830152611d6f8184611ce0565b905092915050565b60008060408385031215611d8e57611d8d6117da565b5b6000611d9c858286016119e1565b9250506020611dad85828601611805565b9150509250929050565b6000602082019050611dcc6000830184611933565b92915050565b600081519050919050565b600082825260208201905092915050565b6000819050602082019050919050565b611e07816119b8565b82525050565b6000611e198383611dfe565b60208301905092915050565b6000602082019050919050565b6000611e3d82611dd2565b611e478185611ddd565b9350611e5283611dee565b8060005b83811015611e83578151611e6a8882611e0d565b9750611e7583611e25565b925050600181019050611e56565b5085935050505092915050565b60006020820190508181036000830152611eaa8184611e32565b905092915050565b600060208284031215611ec857611ec76117da565b5b6000611ed6848285016119e1565b91505092915050565b7f4e487b7100000000000000000000000000000000000000000000000000000000600052602260045260246000fd5b60006002820490506001821680611f2657607f821691505b602082108103611f3957611f38611edf565b5b50919050565b7f596f7520617265206e6f7420616e20696e766573746f72000000000000000000600082015250565b6000611f75601783611861565b9150611f8082611f3f565b602082019050919050565b60006020820190508181036000830152611fa481611f68565b9050919050565b7f4e6f7420656e6f7567682066756e647300000000000000000000000000000000600082015250565b6000611fe1601083611861565b9150611fec82611fab565b602082019050919050565b6000602082019050818103600083015261201081611fd4565b9050919050565b7f596f7520646f6e2774206861766520656e6f7567682073686172657300000000600082015250565b600061204d601c83611861565b915061205882612017565b602082019050919050565b6000602082019050818103600083015261207c81612040565b9050919050565b7f4e487b7100000000000000000000000000000000000000000000000000000000600052601160045260246000fd5b60006120bd826117e4565b91506120c8836117e4565b92508282039050818111156120e0576120df612083565b5b92915050565b60006120f1826117e4565b91506120fc836117e4565b925082820190508082111561211457612113612083565b5b92915050565b7f596f7520617265206e6f742061206d616e616765720000000000000000000000600082015250565b6000612150601583611861565b915061215b8261211a565b602082019050919050565b6000602082019050818103600083015261217f81612143565b9050919050565b6000612191826117e4565b915061219c836117e4565b92508282026121aa816117e4565b915082820484148315176121c1576121c0612083565b5b5092915050565b7f4e487b7100000000000000000000000000000000000000000000000000000000600052601260045260246000fd5b6000612202826117e4565b915061220d836117e4565b92508261221d5761221c6121c8565b5b828204905092915050565b7f4d616a6f7269747920646f6573206e6f7420737570706f727400000000000000600082015250565b600061225e601983611861565b915061226982612228565b602082019050919050565b6000602082019050818103600083015261228d81612251565b9050919050565b7f436f6e747269627574696f6e2054696d6520456e646564000000000000000000600082015250565b60006122ca601783611861565b91506122d582612294565b602082019050919050565b600060208201905081810360008301526122f9816122bd565b9050919050565b7f53656e64206d6f7265207468616e203020657468657200000000000000000000600082015250565b6000612336601683611861565b915061234182612300565b602082019050919050565b6000602082019050818103600083015261236581612329565b9050919050565b7f4e487b7100000000000000000000000000000000000000000000000000000000600052604160045260246000fd5b60008190508160005260206000209050919050565b60006020601f8301049050919050565b600082821b905092915050565b6000600883026123fd7fffffffffffffffffffffffffffffffffffffffffffffffffffffffffffffffff826123c0565b61240786836123c0565b95508019841693508086168417925050509392505050565b6000819050919050565b600061244461243f61243a846117e4565b61241f565b6117e4565b9050919050565b6000819050919050565b61245e83612429565b61247261246a8261244b565b8484546123cd565b825550505050565b600090565b61248761247a565b612492818484612455565b505050565b5b818110156124b6576124ab60008261247f565b600181019050612498565b5050565b601f8211156124fb576124cc8161239b565b6124d5846123b0565b810160208510156124e4578190505b6124f86124f0856123b0565b830182612497565b50505b505050565b600082821c905092915050565b600061251e60001984600802612500565b1980831691505092915050565b6000612537838361250d565b9150826002028217905092915050565b61255082611856565b67ffffffffffffffff8111156125695761256861236c565b5b6125738254611f0e565b61257e8282856124ba565b600060209050601f8311600181146125b1576000841561259f578287015190505b6125a9858261252b565b865550612611565b601f1984166125bf8661239b565b60005b828110156125e7578489015182556001820191506020850194506020810190506125c2565b868310156126045784890151612600601f89168261250d565b8355505b6001600288020188555050505b505050505050565b6000612624826117e4565b91507fffffffffffffffffffffffffffffffffffffffffffffffffffffffffffffffff820361265657612655612083565b5b600182019050919050565b7f4e487b7100000000000000000000000000000000000000000000000000000000600052603260045260246000fd5b7f596f75206861766520616c726561647920766f74656420666f7220746869732060008201527f70726f706f73616c000000000000000000000000000000000000000000000000602082015250565b60006126ec602883611861565b91506126f782612690565b604082019050919050565b6000602082019050818103600083015261271b816126df565b9050919050565b7f566f74696e672054696d6520456e646564000000000000000000000000000000600082015250565b6000612758601183611861565b915061276382612722565b602082019050919050565b600060208201905081810360008301526127878161274b565b9050919050565b7f497420697320616c726561647920657865637574656400000000000000000000600082015250565b60006127c4601683611861565b91506127cf8261278e565b602082019050919050565b600060208201905081810360008301526127f3816127b7565b905091905056fea2646970667358221220bdd1c30eb27d218f4245bb00b65ff091fc683af12780321bae9f8cf94fcf53d764736f6c63430008180033",
  "immutableReferences": {},
  "source": "// SPDX-License-Identifier: MIT\r\n\r\npragma solidity 0.8.24;\r\n\r\ncontract DAO {\r\n    struct Proposal {\r\n        uint256 id;\r\n        string description;\r\n        uint256 amount;\r\n        address payable receipient;\r\n        uint256 votes;\r\n        uint256 end;\r\n        bool isExecuted;\r\n    }\r\n\r\n    mapping(address => bool) private isInvestor;\r\n    mapping(address => uint256) public numOfshares;\r\n    mapping(address => mapping(uint256 => bool)) public isVoted;\r\n    address[] public investorsList;\r\n    mapping(uint256 => Proposal) public proposals;\r\n    uint256 public totalShares;\r\n    uint256 public availableFunds;\r\n    uint256 public contributionTimeEnd;\r\n    uint256 public nextProposalId;\r\n    uint256 public voteTime;\r\n    uint256 public quorum;\r\n    address public manager;\r\n\r\n    //value passed using truffle migration file\r\n    constructor(\r\n        uint256 _contributionTimeEnd,\r\n        uint256 _voteTime,\r\n        uint256 _quorum\r\n    ) {\r\n        require(_quorum > 0 && _quorum < 100, \"Not valid values\");\r\n        contributionTimeEnd = block.timestamp + _contributionTimeEnd; //16342343342 + 2*3600\r\n        voteTime = _voteTime;\r\n        quorum = _quorum;\r\n        manager = msg.sender;\r\n    }\r\n\r\n    modifier onlyInvestor() {\r\n        require(isInvestor[msg.sender] == true, \"You are not an investor\");\r\n        _;\r\n    }\r\n    modifier onlyManager() {\r\n        require(manager == msg.sender, \"You are not a manager\");\r\n        _;\r\n    }\r\n\r\n    function contribution() public payable {\r\n        require(\r\n            contributionTimeEnd >= block.timestamp,\r\n            \"Contribution Time Ended\"\r\n        ); //5 PM , //16342343342 + 2*3600 > 16342340000\r\n        require(msg.value > 0, \"Send more than 0 ether\");\r\n        isInvestor[msg.sender] = true;\r\n        numOfshares[msg.sender] = numOfshares[msg.sender] + msg.value;\r\n        totalShares += msg.value; //totaltShares=totalShares+msg.value\r\n        availableFunds += msg.value;\r\n        investorsList.push(msg.sender);\r\n    }\r\n\r\n    function reedemShare(uint256 amount) public onlyInvestor {\r\n        require(\r\n            numOfshares[msg.sender] >= amount,\r\n            \"You don't have enough shares\"\r\n        );\r\n        require(availableFunds >= amount, \"Not enough funds\");\r\n        numOfshares[msg.sender] -= amount;\r\n        if (numOfshares[msg.sender] == 0) {\r\n            isInvestor[msg.sender] = false;\r\n        }\r\n        availableFunds -= amount;\r\n        payable(msg.sender).transfer(amount); //transferring of ether\r\n    }\r\n\r\n    //investor's address share will get transfered \"to\" address\r\n\r\n    function transferShare(uint256 amount, address to) public onlyInvestor {\r\n        require(availableFunds >= amount, \"Not enough funds\");\r\n        require(\r\n            numOfshares[msg.sender] >= amount,\r\n            \"You don't have enough shares\"\r\n        );\r\n        numOfshares[msg.sender] -= amount;\r\n        if (numOfshares[msg.sender] == 0) {\r\n            isInvestor[msg.sender] = false;\r\n        }\r\n        numOfshares[to] += amount;\r\n        isInvestor[to] = true;\r\n        investorsList.push(to);\r\n    }\r\n\r\n    function createProposal(\r\n        string calldata description,\r\n        uint256 amount,\r\n        address payable receipient\r\n    ) public onlyManager {\r\n        require(availableFunds >= amount, \"Not enough funds\");\r\n        proposals[nextProposalId] = Proposal(\r\n            nextProposalId,\r\n            description,\r\n            amount,\r\n            receipient,\r\n            0,\r\n            block.timestamp + voteTime,\r\n            false\r\n        );\r\n        nextProposalId++;\r\n    }\r\n\r\n    function voteProposal(uint256 proposalId) public onlyInvestor {\r\n        Proposal storage proposal = proposals[proposalId];\r\n        require(\r\n            isVoted[msg.sender][proposalId] == false,\r\n            \"You have already voted for this proposal\"\r\n        );\r\n        require(proposal.end >= block.timestamp, \"Voting Time Ended\");\r\n        require(proposal.isExecuted == false, \"It is already executed\");\r\n        isVoted[msg.sender][proposalId] = true;\r\n        proposal.votes += numOfshares[msg.sender]; //proposal.votes=proposal.votes+numOfshares[msg.sender]\r\n    }\r\n\r\n    function executeProposal(uint256 proposalId) public onlyManager {\r\n        Proposal storage proposal = proposals[proposalId];\r\n        require(\r\n            ((proposal.votes * 100) / totalShares) >= quorum,\r\n            \"Majority does not support\"\r\n        );\r\n        proposal.isExecuted = true;\r\n        availableFunds -= proposal.amount;\r\n        _transfer(proposal.amount, proposal.receipient);\r\n    }\r\n\r\n    function _transfer(uint256 amount, address payable receipient) private {\r\n        receipient.transfer(amount);\r\n    }\r\n\r\n    function ProposalList() public view returns (Proposal[] memory) {\r\n        Proposal[] memory arr = new Proposal[](nextProposalId); //empty array of length=nextProposalId-1\r\n        for (uint256 i = 0; i < nextProposalId; i++) {\r\n            arr[i] = proposals[i];\r\n        }\r\n        return arr;\r\n    }\r\n\r\n    function InvestorList() public view returns (address[] memory) {\r\n        return investorsList;\r\n    }\r\n}\r\n",
  "sourcePath": "C:\\Side Hustle\\DAO\\frontend\\contracts\\DAO.sol",
  "compiler": {
    "name": "solc",
    "version": "0.8.24+commit.e11b9ed9.Emscripten.clang"
  },
  "schemaVersion": "3.4.16",
  "updatedAt": "2024-11-05T19:57:57.160Z",
  "networkType": "ethereum",
  "devdoc": {
    "kind": "dev",
    "methods": {},
    "version": 1
  },
  "userdoc": {
    "kind": "user",
    "methods": {},
    "version": 1
  }
}